:020000040000fa
:080000000002040000000000f2
:020000040000fa
:10000800d2020000d2020000d2020000d202000098
:10001800d2020000d2020000d2020000d202000088
:10002800d2020000d2020000d2020000f023000039
:10003800d2020000d2020000d2020000d202000068
:10004800d2020000d2020000d2020000d202000058
:10005800d2020000d2020000d2020000d202000048
:10006800d2020000d2020000d2020000d202000038
:10007800d2020000d2020000d2020000d202000028
:10008800d2020000d2020000d2020000d202000018
:10009800d2020000d2020000d2020000d202000008
:1000a800d2020000d2020000d2020000d2020000f8
:1000b800d2020000d2020000d2020000d2020000e8
:1000c800d2020000d2020000d2020000d2020000d8
:1000d800d2020000d2020000d2020000d2020000c8
:1000e800d2020000d2020000d2020000d2020000b8
:1000f800d2020000d2020000d2020000d2020000a8
:10010800d2020000d2020000d2020000d202000097
:10011800d2020000d2020000d2020000d202000087
:10012800d2020000d2020000d2020000d202000077
:10013800d2020000d2020000d2020000d202000067
:10014800d2020000d2020000d2020000d202000057
:10015800d2020000d2020000d2020000d202000047
:10016800d2020000d2020000d2020000d202000037
:10017800d2020000d2020000d2020000d202000027
:10018800d2020000d2020000d2020000d202000017
:10019800d2020000d2020000d2020000d202000007
:1001a800d2020000d2020000d2020000d2020000f7
:1001b800d2020000d2020000d2020000d2020000e7
:1001c800d2020000d2020000d2020000d2020000d7
:1001d800d2020000d2020000d2020000d2020000c7
:1001e800d2020000d2020000d2020000d2020000b7
:0801f800d2020000d202000057
:020000040000fa
:10020800d2020000d2020000d2020000d202000096
:10021800d2020000d2020000d2020000d202000086
:10022800d2020000d2020000d2020000f023000037
:10023800d2020000d2020000d2020000d202000066
:10024800d2020000d2020000d2020000d202000056
:10025800d2020000d2020000d2020000d202000046
:10026800d2020000d2020000d2020000d202000036
:10027800d2020000d2020000d2020000d202000026
:10028800d2020000d2020000d2020000d202000016
:10029800d2020000d2020000d2020000d202000006
:1002a800d2020000d2020000d2020000d2020000f6
:1002b800d2020000d2020000d2020000d2020000e6
:1002c800d2020000d2020000d2020000d2020000d6
:1002d800d2020000d2020000d2020000d2020000c6
:1002e800d2020000d2020000d2020000d2020000b6
:1002f800d2020000d2020000d2020000d2020000a6
:10030800d2020000d2020000d2020000d202000095
:10031800d2020000d2020000d2020000d202000085
:10032800d2020000d2020000d2020000d202000075
:10033800d2020000d2020000d2020000d202000065
:10034800d2020000d2020000d2020000d202000055
:10035800d2020000d2020000d2020000d202000045
:10036800d2020000d2020000d2020000d202000035
:10037800d2020000d2020000d2020000d202000025
:10038800d2020000d2020000d2020000d202000015
:10039800d2020000d2020000d2020000d202000005
:1003a800d2020000d2020000d2020000d2020000f5
:1003b800d2020000d2020000d2020000d2020000e5
:1003c800d2020000d2020000d2020000d2020000d5
:1003d800d2020000d2020000d2020000d2020000c5
:1003e800d2020000d2020000d2020000d2020000b5
:0803f800d2020000d202000055
:020000040000fa
:10040000ef8120000eff27000e0188000000000091
:10041000000020000000e000020032000001200087
:10042000200288000c000700e08c22000100200060
:100430000f000700000020000000e0000200320072
:100440000000020000000000ac28020000000000d4
:100450000040da000000fe00001022000000e00072
:1004600002003200002020009001880000000600f9
:10047000a1028800800078000000eb001a0037001d
:10048000e280400054a0b4009101ba00e280400034
:1004900054a0b4009102ba00e280400054a0b4001d
:1004a0000002eb00472bde00f507b200a601880032
:1004b000602ce10008003a000049eb000201e8006e
:1004c000020039003420ec0002f0a0008301e900b2
:1004d000f9ff3e00040037006128e100010032000e
:1004e0000082eb00040007001101ba000200e000e6
:1004f000e3ff3a000000060004d0a300e20f490029
:100500001c003900810278003549ba000201e80078
:10051000020039003420ec0002f0a0008301e90061
:100520000f0032002549ba000201e800020039003c
:100530003420ec0002f0a0008301e9000800320042
:100540000400e0000600320015c9ba000201e8000c
:10055000020039003420ec0002f0a0008301e90021
:100560008180e80054a0b4000300e000e2ff3a00fc
:10057000000006009102ba00055978008301e900e5
:10058000f7ff3200c82ade00055978008301e90030
:10059000f3ff32000400e000f1ff320011d9ba008d
:0c05a000eeff37000040da000000fe0013
:020000040000fa
:1005ac00040000000400000004000000040000002f
:1005bc00040000000400000004000000040000001f
:1005cc00040000000400000004000000040000000f
:1005dc0004000000040000000400000004000000ff
:020000040000fa
:1047ac000000fa0004102000140888002405800082
:1047bc0004c0a00004d0a10004e0a00024058800df
:1047cc0005e1a8008460a9009460a8000080fa00ac
:1047dc0000000600809fbe00829fbe00849fbe002a
:1047ec00869fbe00889fbe008a9fbe008c9fbe0025
:1047fc003200f80000202000900188003400fa00fc
:10480c000002eb00040f7800044080000402420018
:10481c008402780044408000848f520002003100f2
:10482c0054408000040f7800c44080006102620094
:10483c0004427800e04f520006003200d540800060
:10484c00046b2300848f5200020036000002eb0040
:10485c00040f7800c440800062026200e00f520036
:10486c0008003200d5408000044020000482620021
:10487c00e00f5200030032001e0278000402d10047
:10488c00040f780014408000040242008402780077
:10489c0064408000848f520003003100754080001a
:1048ac0015079800020037000002eb00140798006f
:1048bc00c440800064026200e00f52000600320027
:1048cc00d5408000046b2300848f52000200360018
:1048dc000002eb0014079800c440800068026200dc
:1048ec00e00f520008003200d54080000440200048
:1048fc0004826200e00f5200030032001e0290009e
:10490c000402d100140798001e0290001e0f4200f2
:10491c00244080000402420084027800844080001d
:10492c00848f5200030031009440800014079800db
:10493c00020037000002eb0014079800c44080000e
:10494c0070026200e00f520006003200d540800079
:10495c00046b2300848f5200020036000002eb002f
:10496c0014079800c54080000402200004826200f5
:10497c00e00f520008003200d540800004402000b7
:10498c0004826200e00f5200030032001e0290000d
:10499c000402d100140798001e0290001e0f420062
:1049ac00344080000402420084027800a44080005d
:1049bc00848f520003003100b54080001507980029
:1049cc00020037000002eb0014079800c54080007d
:1049dc000404200004826200e00f52000600320042
:1049ec00d5408000046b2300848f520002003600f7
:1049fc000002eb0014079800c5408000040820005a
:104a0c0004826200e00f520008003200d5408000a2
:104a1c000440200004826200e00f520003003200c8
:104a2c001e0290000402d100140798001e02900090
:104a3c001e0f42001e0278004822dd00541688002a
:104a4c00044080000402e800044088000540800017
:104a5c0044408000848f5200020036000002eb00bc
:104a6c0004408800144080000402e80014408800d0
:104a7c001540800064408000848f52000200360094
:104a8c000002eb0014408800244080000402e8007f
:104a9c00244088002540800084408000848f520090
:104aac00020036000002eb002440880034408000f5
:104abc000402e8003440880035408000a4408000a7
:104acc00848f5200020036000002eb003440880054
:104adc00d44080000402e800d4408800d540800017
:104aec0004002400848f5200c7003a000002eb003f
:104afc00d4408800e44080000402e800e4408800d0
:104b0c00e4408000f60f520002003a000002eb0075
:104b1c00e4408800e4408000040242000400780075
:104b2c004fa2de00840078000672220007102000dd
:104b3c000602be00040240008582480096018000f7
:104b4c0004f0a4008582d20095018800140278003c
:104b5c009601880044408800e44080000402420032
:104b6c00040478004fa2de0084047800c274220092
:104b7c00031020000202be000402440085824c0097
:104b8c009601800004f0a4008582d2009501880073
:104b9c00140278009601880054408800e44080009c
:104bac0004024200040678004fa2de00840678005e
:104bbc008a7722000b1020000a02be000402460075
:104bcc0085824e009601800004f0a4008582d200fc
:104bdc0095018800140278009601880064408800d2
:104bec00e440800004024200040378002607980089
:104bfc004fa2de0034079800477a2200470798003e
:104c0c0004102000540798004e029000de02900021
:104c1c002e039000be0390000402430085824b00db
:104c2c009601800004f0a4008582d20095018800d2
:104c3c00140278009601880074408800e4408000db
:104c4c000402420084037800670798004fa2de003c
:104c5c0074079800047d2200040f980005102000b2
:104c6c00150f98000e0a90009e0a90006e0390009b
:104c7c00fe0390000402430085824b0096018000e5
:104c8c0004f0a4008582d2009501880014027800fb
:104c9c009601880084408800e440800004024200b1
:104cac0084037800270f98004fa2de00340f980081
:104cbc00c47f2200440f980005102000550f980067
:104ccc004e0a9000de0a90002e0b9000be0b900056
:104cdc000402430085824b009601800004f0a4007e
:104cec008582d20095018800140278009601880014
:104cfc0094408800e4408000040242008403780061
:104d0c00670f98004fa2de00740f98008482220077
:104d1c000417980005102000151798000e1290002b
:104d2c009e1290006e0b9000fe0b9000040243004c
:104d3c0085824b009601800004f0a4008582d2008d
:104d4c00950188001402780096018800a440880020
:104d5c00e440800004024200840378002717980086
:104d6c004fa2de00341798004485220044179800a7
:104d7c0005102000551798004e129000de1290007e
:104d8c002e139000be1390000402430085824b004a
:104d9c009601800004f0a4008582d2009501880061
:104dac001402780096018800b4408800e44080002a
:104dbc000402420084037800671798004fa2de00bb
:104dcc007417980004882200041f98000510200016
:104ddc00151f98000e1a90009e1a90006e139000ea
:104dec00fe1390000402430085824b009601800064
:104dfc0004f0a4008582d20095018800140278008a
:104e0c0096018800c44088008460a9000080fa00e4
:104e1c003200f9004f06be004f05be004f04be0025
:104e2c004f03be004f02be004f01be004f00be003c
:044e3c00004006002c
:020000040000fa
:104e4000d4000000ee000000ee000000ee000000c4
:104e5000d4000000ee000000ee000000ee000000b4
:104e6000d4000000ee000000fd000000fd00000086
:104e7000fd000000fd000000fd000000fd0000003e
:104e8000fd000000fd000000fd000000fd0000002e
:084e9000fd000000fd00000020
:020000040000fa
:104e98003200000032000000320000003200000042
:104ea8003200000032000000320000003200000032
:104eb8003200000032000000320000003200000022
:104ec8003200000032000000320000003200000012
:104ed8003200000032000000320000003200000002
:084ee80032000000320000005e
:020000040000fa
:104ef000910100009101000091010000910100006a
:104f00009101000091010000910100009101000059
:104f10006501000065010000a9010000a901000071
:104f2000a9010000a9010000a9010000a9010000d9
:104f3000a9010000a9010000a9010000a9010000c9
:084f4000a9010000a901000015
:020000040000fa
:104f48003200000032000000320000003200000091
:104f58003200000032000000320000003200000081
:104f68003200000032000000320000003200000071
:104f78003200000032000000320000003200000061
:104f88003200000032000000320000003200000051
:084f98003200000032000000ad
:020000040000fa
:104fa0003e0100003e0100003e0100003e01000005
:104fb0003e0100003e0100003e0100003e010000f5
:104fc0002c0100002c0100003e0100003e01000009
:104fd0003e0100003e0100003e0100003e010000d5
:104fe0003e0100003e0100003e0100003e010000c5
:084ff0003e0100003e0100003b
:020000040000fa
:104ff80032000000320000003200000032000000e1
:1050080032000000320000003200000032000000d0
:1050180032000000320000003200000032000000c0
:1050280032000000320000003200000032000000b0
:1050380032000000320000003200000032000000a0
:085048003200000032000000fc
:020000040000fa
:10505000a9010000dd010000dd010000dd0100000c
:10506000a9010000dd010000dd010000dd010000fc
:10507000a9010000dd010000fa010000fa010000b2
:10508000fa010000fa010000fa010000fa01000034
:10509000fa010000fa010000fa010000fa01000024
:0850a000fa010000fa01000012
:020000040000fa
:1050a80000000000000000000000000000000000f8
:1050b80000000000000000000000000000000000e8
:1050c80000000000000000000000000000000000d8
:1050d80000000000000000000000000000000000c8
:1050e80000000000000000000000000000000000b8
:0850f8000000000000000000b0
:020000040000fa
:105100001500000015000000150000000000000060
:105110000000000015000000000000001500000065
:10512000000000001500000000000000000000006a
:105130001500000000000000000000001500000045
:10514000000000000000000015000000000000004a
:08515000000000001500000042
:020000040000fa
:105158000400fa00000f7800110798000002eb0025
:10516800142788000002eb00242788000002eb00c7
:10517800342788000002eb00542788000002eb0067
:10518800642788000002eb004416880085fd0700ac
:04519800ffff3700de
:020000040000fa
:10519c001c0800000200000082000000ffff00005d
:1051ac00000800001c00000080000000000000004f
:020000040000fa
:020000040005f5
:0457f400ffec0000c6
:020000040000fa
:020000040005f5
:0457f800be9b000054
:020000040000fa
:020000040005f5
:0457fc007f3f0000eb
:00000001FF
